{
  "contractName": "MultiSigWallet",
  "abi": [
    {
      "constant": true,
      "inputs": [
        {
          "internalType": "uint256",
          "name": "",
          "type": "uint256"
        }
      ],
      "name": "owners",
      "outputs": [
        {
          "internalType": "address",
          "name": "",
          "type": "address"
        }
      ],
      "payable": false,
      "stateMutability": "view",
      "type": "function"
    },
    {
      "constant": true,
      "inputs": [
        {
          "internalType": "address",
          "name": "",
          "type": "address"
        }
      ],
      "name": "isOwner",
      "outputs": [
        {
          "internalType": "bool",
          "name": "",
          "type": "bool"
        }
      ],
      "payable": false,
      "stateMutability": "view",
      "type": "function"
    },
    {
      "constant": true,
      "inputs": [
        {
          "internalType": "uint256",
          "name": "",
          "type": "uint256"
        },
        {
          "internalType": "address",
          "name": "",
          "type": "address"
        }
      ],
      "name": "confirmations",
      "outputs": [
        {
          "internalType": "bool",
          "name": "",
          "type": "bool"
        }
      ],
      "payable": false,
      "stateMutability": "view",
      "type": "function"
    },
    {
      "constant": true,
      "inputs": [
        {
          "internalType": "uint256",
          "name": "",
          "type": "uint256"
        }
      ],
      "name": "transactions",
      "outputs": [
        {
          "internalType": "address",
          "name": "destination",
          "type": "address"
        },
        {
          "internalType": "uint256",
          "name": "value",
          "type": "uint256"
        },
        {
          "internalType": "bytes",
          "name": "data",
          "type": "bytes"
        },
        {
          "internalType": "bool",
          "name": "executed",
          "type": "bool"
        }
      ],
      "payable": false,
      "stateMutability": "view",
      "type": "function"
    },
    {
      "constant": true,
      "inputs": [],
      "name": "transactionCount",
      "outputs": [
        {
          "internalType": "uint256",
          "name": "",
          "type": "uint256"
        }
      ],
      "payable": false,
      "stateMutability": "view",
      "type": "function"
    },
    {
      "constant": true,
      "inputs": [],
      "name": "MAX_OWNER_COUNT",
      "outputs": [
        {
          "internalType": "uint256",
          "name": "",
          "type": "uint256"
        }
      ],
      "payable": false,
      "stateMutability": "view",
      "type": "function"
    },
    {
      "constant": true,
      "inputs": [],
      "name": "required",
      "outputs": [
        {
          "internalType": "uint256",
          "name": "",
          "type": "uint256"
        }
      ],
      "payable": false,
      "stateMutability": "view",
      "type": "function"
    },
    {
      "inputs": [
        {
          "internalType": "address[]",
          "name": "_owners",
          "type": "address[]"
        },
        {
          "internalType": "uint256",
          "name": "_required",
          "type": "uint256"
        }
      ],
      "payable": false,
      "stateMutability": "nonpayable",
      "type": "constructor"
    },
    {
      "payable": true,
      "stateMutability": "payable",
      "type": "fallback"
    },
    {
      "anonymous": false,
      "inputs": [
        {
          "indexed": true,
          "internalType": "address",
          "name": "sender",
          "type": "address"
        },
        {
          "indexed": true,
          "internalType": "uint256",
          "name": "transactionId",
          "type": "uint256"
        }
      ],
      "name": "Confirmation",
      "type": "event"
    },
    {
      "anonymous": false,
      "inputs": [
        {
          "indexed": true,
          "internalType": "address",
          "name": "sender",
          "type": "address"
        },
        {
          "indexed": true,
          "internalType": "uint256",
          "name": "transactionId",
          "type": "uint256"
        }
      ],
      "name": "Revocation",
      "type": "event"
    },
    {
      "anonymous": false,
      "inputs": [
        {
          "indexed": true,
          "internalType": "uint256",
          "name": "transactionId",
          "type": "uint256"
        }
      ],
      "name": "Submission",
      "type": "event"
    },
    {
      "anonymous": false,
      "inputs": [
        {
          "indexed": true,
          "internalType": "uint256",
          "name": "transactionId",
          "type": "uint256"
        }
      ],
      "name": "Execution",
      "type": "event"
    },
    {
      "anonymous": false,
      "inputs": [
        {
          "indexed": true,
          "internalType": "uint256",
          "name": "transactionId",
          "type": "uint256"
        }
      ],
      "name": "ExecutionFailure",
      "type": "event"
    },
    {
      "anonymous": false,
      "inputs": [
        {
          "indexed": true,
          "internalType": "address",
          "name": "sender",
          "type": "address"
        },
        {
          "indexed": false,
          "internalType": "uint256",
          "name": "value",
          "type": "uint256"
        }
      ],
      "name": "Deposit",
      "type": "event"
    },
    {
      "anonymous": false,
      "inputs": [
        {
          "indexed": true,
          "internalType": "address",
          "name": "owner",
          "type": "address"
        }
      ],
      "name": "OwnerAddition",
      "type": "event"
    },
    {
      "anonymous": false,
      "inputs": [
        {
          "indexed": true,
          "internalType": "address",
          "name": "owner",
          "type": "address"
        }
      ],
      "name": "OwnerRemoval",
      "type": "event"
    },
    {
      "anonymous": false,
      "inputs": [
        {
          "indexed": false,
          "internalType": "uint256",
          "name": "required",
          "type": "uint256"
        }
      ],
      "name": "RequirementChange",
      "type": "event"
    },
    {
      "constant": false,
      "inputs": [
        {
          "internalType": "address",
          "name": "owner",
          "type": "address"
        }
      ],
      "name": "addOwner",
      "outputs": [],
      "payable": false,
      "stateMutability": "nonpayable",
      "type": "function"
    },
    {
      "constant": false,
      "inputs": [
        {
          "internalType": "address",
          "name": "owner",
          "type": "address"
        }
      ],
      "name": "removeOwner",
      "outputs": [],
      "payable": false,
      "stateMutability": "nonpayable",
      "type": "function"
    },
    {
      "constant": false,
      "inputs": [
        {
          "internalType": "address",
          "name": "owner",
          "type": "address"
        },
        {
          "internalType": "address",
          "name": "newOwner",
          "type": "address"
        }
      ],
      "name": "replaceOwner",
      "outputs": [],
      "payable": false,
      "stateMutability": "nonpayable",
      "type": "function"
    },
    {
      "constant": false,
      "inputs": [
        {
          "internalType": "uint256",
          "name": "_required",
          "type": "uint256"
        }
      ],
      "name": "changeRequirement",
      "outputs": [],
      "payable": false,
      "stateMutability": "nonpayable",
      "type": "function"
    },
    {
      "constant": false,
      "inputs": [
        {
          "internalType": "address",
          "name": "destination",
          "type": "address"
        },
        {
          "internalType": "uint256",
          "name": "value",
          "type": "uint256"
        },
        {
          "internalType": "bytes",
          "name": "data",
          "type": "bytes"
        }
      ],
      "name": "submitTransaction",
      "outputs": [
        {
          "internalType": "uint256",
          "name": "transactionId",
          "type": "uint256"
        }
      ],
      "payable": false,
      "stateMutability": "nonpayable",
      "type": "function"
    },
    {
      "constant": false,
      "inputs": [
        {
          "internalType": "uint256",
          "name": "transactionId",
          "type": "uint256"
        }
      ],
      "name": "confirmTransaction",
      "outputs": [],
      "payable": false,
      "stateMutability": "nonpayable",
      "type": "function"
    },
    {
      "constant": false,
      "inputs": [
        {
          "internalType": "uint256",
          "name": "transactionId",
          "type": "uint256"
        }
      ],
      "name": "revokeConfirmation",
      "outputs": [],
      "payable": false,
      "stateMutability": "nonpayable",
      "type": "function"
    },
    {
      "constant": false,
      "inputs": [
        {
          "internalType": "uint256",
          "name": "transactionId",
          "type": "uint256"
        }
      ],
      "name": "executeTransaction",
      "outputs": [],
      "payable": false,
      "stateMutability": "nonpayable",
      "type": "function"
    },
    {
      "constant": true,
      "inputs": [
        {
          "internalType": "uint256",
          "name": "transactionId",
          "type": "uint256"
        }
      ],
      "name": "isConfirmed",
      "outputs": [
        {
          "internalType": "bool",
          "name": "",
          "type": "bool"
        }
      ],
      "payable": false,
      "stateMutability": "view",
      "type": "function"
    },
    {
      "constant": true,
      "inputs": [
        {
          "internalType": "uint256",
          "name": "transactionId",
          "type": "uint256"
        }
      ],
      "name": "getConfirmationCount",
      "outputs": [
        {
          "internalType": "uint256",
          "name": "count",
          "type": "uint256"
        }
      ],
      "payable": false,
      "stateMutability": "view",
      "type": "function"
    },
    {
      "constant": true,
      "inputs": [
        {
          "internalType": "bool",
          "name": "pending",
          "type": "bool"
        },
        {
          "internalType": "bool",
          "name": "executed",
          "type": "bool"
        }
      ],
      "name": "getTransactionCount",
      "outputs": [
        {
          "internalType": "uint256",
          "name": "count",
          "type": "uint256"
        }
      ],
      "payable": false,
      "stateMutability": "view",
      "type": "function"
    },
    {
      "constant": true,
      "inputs": [],
      "name": "getOwners",
      "outputs": [
        {
          "internalType": "address[]",
          "name": "",
          "type": "address[]"
        }
      ],
      "payable": false,
      "stateMutability": "view",
      "type": "function"
    },
    {
      "constant": true,
      "inputs": [
        {
          "internalType": "uint256",
          "name": "transactionId",
          "type": "uint256"
        }
      ],
      "name": "getConfirmations",
      "outputs": [
        {
          "internalType": "address[]",
          "name": "_confirmations",
          "type": "address[]"
        }
      ],
      "payable": false,
      "stateMutability": "view",
      "type": "function"
    },
    {
      "constant": true,
      "inputs": [
        {
          "internalType": "uint256",
          "name": "from",
          "type": "uint256"
        },
        {
          "internalType": "uint256",
          "name": "to",
          "type": "uint256"
        },
        {
          "internalType": "bool",
          "name": "pending",
          "type": "bool"
        },
        {
          "internalType": "bool",
          "name": "executed",
          "type": "bool"
        }
      ],
      "name": "getTransactionIds",
      "outputs": [
        {
          "internalType": "uint256[]",
          "name": "_transactionIds",
          "type": "uint256[]"
        }
      ],
      "payable": false,
      "stateMutability": "view",
      "type": "function"
    }
  ],
  "bytecode": "0x60806040523480156200001157600080fd5b50604051620018e5380380620018e5833981810160405260408110156200003757600080fd5b81019080805160405193929190846401000000008211156200005857600080fd5b9083019060208201858111156200006e57600080fd5b82518660208202830111640100000000821117156200008c57600080fd5b82525081516020918201928201910280838360005b83811015620000bb578181015183820152602001620000a1565b50505050919091016040525060200151835190925090508160328211801590620000e55750818111155b8015620000f157508015155b8015620000fd57508115155b6200010757600080fd5b60005b8451811015620001d957600260008683815181106200012557fe5b602090810291909101810151600160a060020a031682528101919091526040016000205460ff161580156200018157506000600160a060020a03168582815181106200016d57fe5b6020026020010151600160a060020a031614155b6200018b57600080fd5b6001600260008784815181106200019e57fe5b602090810291909101810151600160a060020a03168252810191909152604001600020805460ff19169115159190911790556001016200010a565b508351620001ef906003906020870190620001fc565b5050506004555062000290565b82805482825590600052602060002090810192821562000254579160200282015b82811115620002545782518254600160a060020a031916600160a060020a039091161782556020909201916001909101906200021d565b506200026292915062000266565b5090565b6200028d91905b8082111562000262578054600160a060020a03191681556001016200026d565b90565b61164580620002a06000396000f3fe608060405260043610610147576000357c010000000000000000000000000000000000000000000000000000000090048063a0e67e2b116100c8578063c01a8c841161008c578063c01a8c8414610551578063c64274741461057b578063d74f8edd14610643578063dc8452cd14610658578063e20056e61461066d578063ee22610b146106a857610147565b8063a0e67e2b14610443578063a8abe69a146104a8578063b5dc40c3146104e8578063b77bf60014610512578063ba51a6df1461052757610147565b8063547415251161010f57806354741525146102a95780637065cb48146102ef578063784547a7146103225780638b51d13f1461034c5780639ace38c21461037657610147565b8063025e7c2714610186578063173825d9146101cc57806320ea8d86146101ff5780632f54bf6e146102295780633411c81c14610270575b34156101845760408051348152905133917fe1fffcc4923d04b559f4d29a8bfc6cda04eb5b0d3c460751c2402c5c5cc9109c919081900360200190a25b005b34801561019257600080fd5b506101b0600480360360208110156101a957600080fd5b50356106d2565b60408051600160a060020a039092168252519081900360200190f35b3480156101d857600080fd5b50610184600480360360208110156101ef57600080fd5b5035600160a060020a03166106f9565b34801561020b57600080fd5b506101846004803603602081101561022257600080fd5b5035610865565b34801561023557600080fd5b5061025c6004803603602081101561024c57600080fd5b5035600160a060020a031661091b565b604080519115158252519081900360200190f35b34801561027c57600080fd5b5061025c6004803603604081101561029357600080fd5b5080359060200135600160a060020a0316610930565b3480156102b557600080fd5b506102dd600480360360408110156102cc57600080fd5b508035151590602001351515610950565b60408051918252519081900360200190f35b3480156102fb57600080fd5b506101846004803603602081101561031257600080fd5b5035600160a060020a03166109bc565b34801561032e57600080fd5b5061025c6004803603602081101561034557600080fd5b5035610add565b34801561035857600080fd5b506102dd6004803603602081101561036f57600080fd5b5035610b64565b34801561038257600080fd5b506103a06004803603602081101561039957600080fd5b5035610bd3565b6040518085600160a060020a0316600160a060020a031681526020018481526020018060200183151515158152602001828103825284818151815260200191508051906020019080838360005b838110156104055781810151838201526020016103ed565b50505050905090810190601f1680156104325780820380516001836020036101000a031916815260200191505b509550505050505060405180910390f35b34801561044f57600080fd5b50610458610c91565b60408051602080825283518183015283519192839290830191858101910280838360005b8381101561049457818101518382015260200161047c565b505050509050019250505060405180910390f35b3480156104b457600080fd5b50610458600480360360808110156104cb57600080fd5b508035906020810135906040810135151590606001351515610cf4565b3480156104f457600080fd5b506104586004803603602081101561050b57600080fd5b5035610e1f565b34801561051e57600080fd5b506102dd610f96565b34801561053357600080fd5b506101846004803603602081101561054a57600080fd5b5035610f9c565b34801561055d57600080fd5b506101846004803603602081101561057457600080fd5b5035611019565b34801561058757600080fd5b506102dd6004803603606081101561059e57600080fd5b600160a060020a03823516916020810135918101906060810160408201356401000000008111156105ce57600080fd5b8201836020820111156105e057600080fd5b8035906020019184600183028401116401000000008311171561060257600080fd5b91908080601f0160208091040260200160405190810160405280939291908181526020018383808284376000920191909152509295506110e0945050505050565b34801561064f57600080fd5b506102dd6110ff565b34801561066457600080fd5b506102dd611104565b34801561067957600080fd5b506101846004803603604081101561069057600080fd5b50600160a060020a038135811691602001351661110a565b3480156106b457600080fd5b50610184600480360360208110156106cb57600080fd5b5035611287565b600381815481106106df57fe5b600091825260209091200154600160a060020a0316905081565b33301461070557600080fd5b600160a060020a038116600090815260026020526040902054819060ff1661072c57600080fd5b600160a060020a0382166000908152600260205260408120805460ff191690555b600354600019018110156108005782600160a060020a03166003828154811061077257fe5b600091825260209091200154600160a060020a031614156107f85760038054600019810190811061079f57fe5b60009182526020909120015460038054600160a060020a0390921691839081106107c557fe5b9060005260206000200160006101000a815481600160a060020a030219169083600160a060020a03160217905550610800565b60010161074d565b50600380546000190190610814908261154f565b50600354600454111561082d5760035461082d90610f9c565b604051600160a060020a038316907f8001553a916ef2f495d26a907cc54d96ed840d7bda71e73194bf5a9df7a76b9090600090a25050565b3360008181526002602052604090205460ff1661088157600080fd5b60008281526001602090815260408083203380855292529091205483919060ff166108ab57600080fd5b600084815260208190526040902060030154849060ff16156108cc57600080fd5b6000858152600160209081526040808320338085529252808320805460ff191690555187927ff6a317157440607f36269043eb55f1287a5a19ba2216afeab88cd46cbcfb88e991a35050505050565b60026020526000908152604090205460ff1681565b600160209081526000928352604080842090915290825290205460ff1681565b6000805b6005548110156109b55783801561097d575060008181526020819052604090206003015460ff16155b806109a157508280156109a1575060008181526020819052604090206003015460ff165b156109ad576001820191505b600101610954565b5092915050565b3330146109c857600080fd5b600160a060020a038116600090815260026020526040902054819060ff16156109f057600080fd5b81600160a060020a038116610a0457600080fd5b60038054905060010160045460328211158015610a215750818111155b8015610a2c57508015155b8015610a3757508115155b610a4057600080fd5b600160a060020a038516600081815260026020526040808220805460ff1916600190811790915560038054918201815583527fc2575a0e9e593c00f959f8c92f12db2869c3395a3b0502d05e2516446f71f85b01805473ffffffffffffffffffffffffffffffffffffffff191684179055517ff39e6e1eb0edcf53c221607b54b00cd28f3196fed0a24994dc308b8f611b682d9190a25050505050565b600080805b600354811015610b5c5760008481526001602052604081206003805491929184908110610b0b57fe5b6000918252602080832090910154600160a060020a0316835282019290925260400190205460ff1615610b3f576001820191505b600454821415610b5457600192505050610b5f565b600101610ae2565b50505b919050565b6000805b600354811015610bcd5760008381526001602052604081206003805491929184908110610b9157fe5b6000918252602080832090910154600160a060020a0316835282019290925260400190205460ff1615610bc5576001820191505b600101610b68565b50919050565b6000602081815291815260409081902080546001808301546002808501805487516101009582161595909502600019011691909104601f8101889004880284018801909652858352600160a060020a0390931695909491929190830182828015610c7e5780601f10610c5357610100808354040283529160200191610c7e565b820191906000526020600020905b815481529060010190602001808311610c6157829003601f168201915b5050506003909301549192505060ff1684565b60606003805480602002602001604051908101604052809291908181526020018280548015610ce957602002820191906000526020600020905b8154600160a060020a03168152600190910190602001808311610ccb575b505050505090505b90565b606080600554604051908082528060200260200182016040528015610d23578160200160208202803883390190505b5090506000805b600554811015610da457858015610d53575060008181526020819052604090206003015460ff16155b80610d775750848015610d77575060008181526020819052604090206003015460ff165b15610d9c5780838381518110610d8957fe5b6020026020010181815250506001820191505b600101610d2a565b878703604051908082528060200260200182016040528015610dd0578160200160208202803883390190505b5093508790505b86811015610e1457828181518110610deb57fe5b60200260200101518489830381518110610e0157fe5b6020908102919091010152600101610dd7565b505050949350505050565b606080600380549050604051908082528060200260200182016040528015610e51578160200160208202803883390190505b5090506000805b600354811015610f145760008581526001602052604081206003805491929184908110610e8157fe5b6000918252602080832090910154600160a060020a0316835282019290925260400190205460ff1615610f0c5760038181548110610ebb57fe5b9060005260206000200160009054906101000a9004600160a060020a0316838381518110610ee557fe5b6020026020010190600160a060020a03169081600160a060020a0316815250506001820191505b600101610e58565b81604051908082528060200260200182016040528015610f3e578160200160208202803883390190505b509350600090505b81811015610f8e57828181518110610f5a57fe5b6020026020010151848281518110610f6e57fe5b600160a060020a0390921660209283029190910190910152600101610f46565b505050919050565b60055481565b333014610fa857600080fd5b6003548160328211801590610fbd5750818111155b8015610fc857508015155b8015610fd357508115155b610fdc57600080fd5b60048390556040805184815290517fa3f1ee9126a074d9326c682f561767f710e927faa811f7a99829d49dc421797a9181900360200190a1505050565b3360008181526002602052604090205460ff1661103557600080fd5b6000828152602081905260409020548290600160a060020a031661105857600080fd5b60008381526001602090815260408083203380855292529091205484919060ff161561108357600080fd5b6000858152600160208181526040808420338086529252808420805460ff1916909317909255905187927f4a504a94899432a9846e1aa406dceb1bcfd538bb839071d49d1e5e23f5be30ef91a36110d985611287565b5050505050565b60006110ed84848461143e565b90506110f881611019565b9392505050565b603281565b60045481565b33301461111657600080fd5b600160a060020a038216600090815260026020526040902054829060ff1661113d57600080fd5b600160a060020a038216600090815260026020526040902054829060ff161561116557600080fd5b60005b6003548110156111ed5784600160a060020a03166003828154811061118957fe5b600091825260209091200154600160a060020a031614156111e55783600382815481106111b257fe5b9060005260206000200160006101000a815481600160a060020a030219169083600160a060020a031602179055506111ed565b600101611168565b50600160a060020a03808516600081815260026020526040808220805460ff1990811690915593871682528082208054909416600117909355915190917f8001553a916ef2f495d26a907cc54d96ed840d7bda71e73194bf5a9df7a76b9091a2604051600160a060020a038416907ff39e6e1eb0edcf53c221607b54b00cd28f3196fed0a24994dc308b8f611b682d90600090a250505050565b3360008181526002602052604090205460ff166112a357600080fd5b60008281526001602090815260408083203380855292529091205483919060ff166112cd57600080fd5b600084815260208190526040902060030154849060ff16156112ee57600080fd5b6112f785610add565b156110d9576000858152602081815260409182902060038101805460ff19166001908117909155815481830154600280850180548851601f6000199783161561010002979097019091169290920494850187900487028201870190975283815293956113c995600160a060020a039093169491939283908301828280156113bf5780601f10611394576101008083540402835291602001916113bf565b820191906000526020600020905b8154815290600101906020018083116113a257829003601f168201915b505050505061152c565b156113fe5760405186907f33e13ecb54c3076d8e8bb8c2881800a4d972b792045ffae98fdf46df365fed7590600090a2611436565b60405186907f526441bb6c1aba3c9a4a6ca1d6545da9c2333c8c48343ef398eb858d72b7923690600090a260038101805460ff191690555b505050505050565b600083600160a060020a03811661145457600080fd5b60055460408051608081018252600160a060020a0388811682526020808301898152838501898152600060608601819052878152808452959095208451815473ffffffffffffffffffffffffffffffffffffffff1916941693909317835551600183015592518051949650919390926114d4926002850192910190611578565b50606091909101516003909101805460ff191691151591909117905560058054600101905560405182907fc0ba8fe4b176c1714197d43b9cc6bcf797a4a7461c5fe8d0ef6e184ae7601e5190600090a2509392505050565b6000806040516020840160008287838a8c6187965a03f198975050505050505050565b815481835581811115611573576000838152602090206115739181019083016115f6565b505050565b828054600181600116156101000203166002900490600052602060002090601f016020900481019282601f106115b957805160ff19168380011785556115e6565b828001600101855582156115e6579182015b828111156115e65782518255916020019190600101906115cb565b506115f29291506115f6565b5090565b610cf191905b808211156115f257600081556001016115fc56fea265627a7a72315820297e4d711f11562a42afd8f377a7fbdf06c77bd2ca7df1e3b9d539699d663c9d64736f6c634300050b0032",
  "source": "pragma solidity  ^ 0.5.11;\r\n\r\n\r\n/// @title Multisignature wallet - Allows multiple parties to agree on transactions before execution.\r\n/// @author Stefan George - <stefan.george@consensys.net>\r\ncontract MultiSigWallet {\r\n\r\n    /*\r\n     *  Events\r\n     */\r\n    event Confirmation(address indexed sender, uint indexed transactionId);\r\n    event Revocation(address indexed sender, uint indexed transactionId);\r\n    event Submission(uint indexed transactionId);\r\n    event Execution(uint indexed transactionId);\r\n    event ExecutionFailure(uint indexed transactionId);\r\n    event Deposit(address indexed sender, uint value);\r\n    event OwnerAddition(address indexed owner);\r\n    event OwnerRemoval(address indexed owner);\r\n    event RequirementChange(uint required);\r\n\r\n    /*\r\n     *  Constants\r\n     */\r\n    uint constant public MAX_OWNER_COUNT = 50;\r\n\r\n    /*\r\n     *  Storage\r\n     */\r\n    mapping (uint => Transaction) public transactions;\r\n    mapping (uint => mapping (address => bool)) public confirmations;\r\n    mapping (address => bool) public isOwner;\r\n    address[] public owners;\r\n    uint public required;\r\n    uint public transactionCount;\r\n\r\n    struct Transaction {\r\n        address destination;\r\n        uint value;\r\n        bytes data;\r\n        bool executed;\r\n    }\r\n\r\n    /*\r\n     *  Modifiers\r\n     */\r\n    modifier onlyWallet() {\r\n        require(msg.sender == address(this));\r\n        _;\r\n    }\r\n\r\n    modifier ownerDoesNotExist(address owner) {\r\n        require(!isOwner[owner]);\r\n        _;\r\n    }\r\n\r\n    modifier ownerExists(address owner) {\r\n        require(isOwner[owner]);\r\n        _;\r\n    }\r\n\r\n    modifier transactionExists(uint transactionId) {\r\n        require(transactions[transactionId].destination != address(0));\r\n        _;\r\n    }\r\n\r\n    modifier confirmed(uint transactionId, address owner) {\r\n        require(confirmations[transactionId][owner]);\r\n        _;\r\n    }\r\n\r\n    modifier notConfirmed(uint transactionId, address owner) {\r\n        require(!confirmations[transactionId][owner]);\r\n        _;\r\n    }\r\n\r\n    modifier notExecuted(uint transactionId) {\r\n        require(!transactions[transactionId].executed);\r\n        _;\r\n    }\r\n\r\n    modifier notNull(address _address) {\r\n        require(_address != address(0));\r\n        _;\r\n    }\r\n\r\n    modifier validRequirement(uint ownerCount, uint _required) {\r\n        require(ownerCount <= MAX_OWNER_COUNT\r\n            && _required <= ownerCount\r\n            && _required != 0\r\n            && ownerCount != 0);\r\n        _;\r\n    }\r\n\r\n    /// @dev Fallback function allows to deposit ether.\r\n     function()\r\n        external\r\n        payable\r\n    {\r\n        if (msg.value > 0)\r\n            emit Deposit(msg.sender, msg.value);\r\n    }\r\n\r\n    /*\r\n     * Public functions\r\n     */\r\n    /// @dev Contract constructor sets initial owners and required number of confirmations.\r\n    /// @param _owners List of initial owners.\r\n    /// @param _required Number of required confirmations.\r\n    constructor(address[] memory _owners, uint _required)\r\n        public\r\n        validRequirement(_owners.length, _required)\r\n    {\r\n        for (uint i=0; i<_owners.length; i++) {\r\n            require(!isOwner[_owners[i]] && _owners[i] != address(0));\r\n            isOwner[_owners[i]] = true;\r\n        }\r\n        owners = _owners;\r\n        required = _required;\r\n    }\r\n\r\n    /// @dev Allows to add a new owner. Transaction has to be sent by wallet.\r\n    /// @param owner Address of new owner.\r\n    function addOwner(address owner)\r\n        public\r\n        onlyWallet\r\n        ownerDoesNotExist(owner)\r\n        notNull(owner)\r\n        validRequirement(owners.length + 1, required)\r\n    {\r\n        isOwner[owner] = true;\r\n        owners.push(owner);\r\n       emit OwnerAddition(owner);\r\n    }\r\n\r\n    /// @dev Allows to remove an owner. Transaction has to be sent by wallet.\r\n    /// @param owner Address of owner.\r\n    function removeOwner(address owner)\r\n        public\r\n        onlyWallet\r\n        ownerExists(owner)\r\n    {\r\n        isOwner[owner] = false;\r\n        for (uint i=0; i<owners.length - 1; i++)\r\n            if (owners[i] == owner) {\r\n                owners[i] = owners[owners.length - 1];\r\n                break;\r\n            }\r\n        owners.length -= 1;\r\n        if (required > owners.length)\r\n            changeRequirement(owners.length);\r\n       emit OwnerRemoval(owner);\r\n    }\r\n\r\n    /// @dev Allows to replace an owner with a new owner. Transaction has to be sent by wallet.\r\n    /// @param owner Address of owner to be replaced.\r\n    /// @param newOwner Address of new owner.\r\n    function replaceOwner(address owner, address newOwner)\r\n        public\r\n        onlyWallet\r\n        ownerExists(owner)\r\n        ownerDoesNotExist(newOwner)\r\n    {\r\n        for (uint i=0; i<owners.length; i++)\r\n            if (owners[i] == owner) {\r\n                owners[i] = newOwner;\r\n                break;\r\n            }\r\n        isOwner[owner] = false;\r\n        isOwner[newOwner] = true;\r\n       emit OwnerRemoval(owner);\r\n        emit OwnerAddition(newOwner);\r\n    }\r\n\r\n    /// @dev Allows to change the number of required confirmations. Transaction has to be sent by wallet.\r\n    /// @param _required Number of required confirmations.\r\n    function changeRequirement(uint _required)\r\n        public\r\n        onlyWallet\r\n        validRequirement(owners.length, _required)\r\n    {\r\n        required = _required;\r\n        emit RequirementChange(_required);\r\n    }\r\n\r\n    /// @dev Allows an owner to submit and confirm a transaction.\r\n    /// @param destination Transaction target address.\r\n    /// @param value Transaction ether value.\r\n    /// @param data Transaction data payload.\r\n    /// @return Returns transaction ID.\r\n    function submitTransaction(address destination, uint value, bytes memory data)\r\n        public\r\n        returns (uint transactionId)\r\n    {\r\n        transactionId = addTransaction(destination, value, data);\r\n        confirmTransaction(transactionId);\r\n    }\r\n\r\n    /// @dev Allows an owner to confirm a transaction.\r\n    /// @param transactionId Transaction ID.\r\n    function confirmTransaction(uint transactionId)\r\n        public\r\n        ownerExists(msg.sender)\r\n        transactionExists(transactionId)\r\n        notConfirmed(transactionId, msg.sender)\r\n    {\r\n        confirmations[transactionId][msg.sender] = true;\r\n        emit Confirmation(msg.sender, transactionId);\r\n        executeTransaction(transactionId);\r\n    }\r\n\r\n    /// @dev Allows an owner to revoke a confirmation for a transaction.\r\n    /// @param transactionId Transaction ID.\r\n    function revokeConfirmation(uint transactionId)\r\n        public\r\n        ownerExists(msg.sender)\r\n        confirmed(transactionId, msg.sender)\r\n        notExecuted(transactionId)\r\n    {\r\n        confirmations[transactionId][msg.sender] = false;\r\n        emit Revocation(msg.sender, transactionId);\r\n    }\r\n\r\n    /// @dev Allows anyone to execute a confirmed transaction.\r\n    /// @param transactionId Transaction ID.\r\n    function executeTransaction(uint transactionId)\r\n        public\r\n        ownerExists(msg.sender)\r\n        confirmed(transactionId, msg.sender)\r\n        notExecuted(transactionId)\r\n    {\r\n        if (isConfirmed(transactionId)) {\r\n            Transaction storage txn = transactions[transactionId];\r\n            txn.executed = true;\r\n            if (external_call(txn.destination, txn.value, txn.data.length, txn.data))\r\n                emit Execution(transactionId);\r\n            else {\r\n               emit ExecutionFailure(transactionId);\r\n                txn.executed = false;\r\n            }\r\n        }\r\n    }\r\n\r\n    // call has been separated into its own function in order to take advantage\r\n    // of the Solidity's code generator to produce a loop that copies tx.data into memory.\r\n    function external_call(address destination, uint value, uint dataLength, bytes memory data) internal returns (bool)  {\r\n        bool result;\r\n        assembly {\r\n            let x := mload(0x40)   // \"Allocate\" memory for output (0x40 is where \"free memory\" pointer is stored by convention)\r\n            let d := add(data, 32) // First 32 bytes are the padded length of data, so exclude that\r\n            result := call(\r\n                sub(gas, 34710),   // 34710 is the value that solidity is currently emitting\r\n                                   // It includes callGas (700) + callVeryLow (3, to pay for SUB) + callValueTransferGas (9000) +\r\n                                   // callNewAccountGas (25000, in case the destination address does not exist and needs creating)\r\n                destination,\r\n                value,\r\n                d,\r\n                dataLength,        // Size of the input (in bytes) - this is what fixes the padding problem\r\n                x,\r\n                0                  // Output is ignored, therefore the output size is zero\r\n            )\r\n        }\r\n        return result;\r\n    }\r\n\r\n    /// @dev Returns the confirmation status of a transaction.\r\n    /// @param transactionId Transaction ID.\r\n    /// @return Confirmation status.\r\n    function isConfirmed(uint transactionId)\r\n        public\r\n        view\r\n        returns (bool)\r\n    {\r\n        uint count = 0;\r\n        for (uint i=0; i<owners.length; i++) {\r\n            if (confirmations[transactionId][owners[i]])\r\n                count += 1;\r\n            if (count == required)\r\n                return true;\r\n        }\r\n    }\r\n\r\n    /*\r\n     * Internal functions\r\n     */\r\n    /// @dev Adds a new transaction to the transaction mapping, if transaction does not exist yet.\r\n    /// @param destination Transaction target address.\r\n    /// @param value Transaction ether value.\r\n    /// @param data Transaction data payload.\r\n    /// @return Returns transaction ID.\r\n    function addTransaction(address destination, uint value, bytes memory data)\r\n        internal\r\n        notNull(destination)\r\n        returns (uint transactionId)\r\n    {\r\n        transactionId = transactionCount;\r\n        transactions[transactionId] = Transaction({\r\n            destination: destination,\r\n            value: value,\r\n            data: data,\r\n            executed: false\r\n        });\r\n        transactionCount += 1;\r\n        emit Submission(transactionId);\r\n    }\r\n\r\n    /*\r\n     * Web3 call functions\r\n     */\r\n    /// @dev Returns number of confirmations of a transaction.\r\n    /// @param transactionId Transaction ID.\r\n    /// @return Number of confirmations.\r\n    function getConfirmationCount(uint transactionId)\r\n        public\r\n        view\r\n        returns (uint count)\r\n    {\r\n        for (uint i=0; i<owners.length; i++)\r\n            if (confirmations[transactionId][owners[i]])\r\n                count += 1;\r\n    }\r\n\r\n    /// @dev Returns total number of transactions after filers are applied.\r\n    /// @param pending Include pending transactions.\r\n    /// @param executed Include executed transactions.\r\n    /// @return Total number of transactions after filters are applied.\r\n    function getTransactionCount(bool pending, bool executed)\r\n        public\r\n        view\r\n        returns (uint count)\r\n    {\r\n        for (uint i=0; i<transactionCount; i++)\r\n            if (   pending && !transactions[i].executed\r\n                || executed && transactions[i].executed)\r\n                count += 1;\r\n    }\r\n\r\n    /// @dev Returns list of owners.\r\n    /// @return List of owner addresses.\r\n    function getOwners()\r\n        public\r\n        view\r\n        returns (address[] memory)\r\n    {\r\n        return owners;\r\n    }\r\n\r\n    /// @dev Returns array with owner addresses, which confirmed transaction.\r\n    /// @param transactionId Transaction ID.\r\n    /// @return Returns array of owner addresses.\r\n    function getConfirmations(uint transactionId)\r\n        public\r\n        view\r\n        returns (address[] memory _confirmations)\r\n    {\r\n        address[] memory confirmationsTemp = new address[](owners.length);\r\n        uint count = 0;\r\n        uint i;\r\n        for (i=0; i<owners.length; i++)\r\n            if (confirmations[transactionId][owners[i]]) {\r\n                confirmationsTemp[count] = owners[i];\r\n                count += 1;\r\n            }\r\n        _confirmations = new address[](count);\r\n        for (i=0; i<count; i++)\r\n            _confirmations[i] = confirmationsTemp[i];\r\n    }\r\n\r\n    /// @dev Returns list of transaction IDs in defined range.\r\n    /// @param from Index start position of transaction array.\r\n    /// @param to Index end position of transaction array.\r\n    /// @param pending Include pending transactions.\r\n    /// @param executed Include executed transactions.\r\n    /// @return Returns array of transaction IDs.\r\n    function getTransactionIds(uint from, uint to, bool pending, bool executed)\r\n        public\r\n        view\r\n        returns (uint[] memory _transactionIds)\r\n    {\r\n        uint[] memory transactionIdsTemp = new uint[](transactionCount);\r\n        uint count = 0;\r\n        uint i;\r\n        for (i=0; i<transactionCount; i++)\r\n            if (   pending && !transactions[i].executed\r\n                || executed && transactions[i].executed)\r\n            {\r\n                transactionIdsTemp[count] = i;\r\n                count += 1;\r\n            }\r\n        _transactionIds = new uint[](to - from);\r\n        for (i=from; i<to; i++)\r\n            _transactionIds[i - from] = transactionIdsTemp[i];\r\n    }\r\n}\r\n",
  "sourcePath": "C:\\Users\\zigaf\\Documents\\rvx-solidity-tokencontract\\contracts\\MultiSigWallet.sol",
  "compiler": {
    "name": "solc",
    "version": "0.5.11+commit.c082d0b4.Emscripten.clang"
  },
  "schemaVersion": "3.0.23",
  "updatedAt": "2020-02-13T14:19:14.626Z",
  "networkType": "ethereum",
  "devdoc": {
    "author": "Stefan George - <stefan.george@consensys.net>",
    "methods": {
      "addOwner(address)": {
        "params": {
          "owner": "Address of new owner."
        }
      },
      "changeRequirement(uint256)": {
        "params": {
          "_required": "Number of required confirmations."
        }
      },
      "confirmTransaction(uint256)": {
        "params": {
          "transactionId": "Transaction ID."
        }
      },
      "constructor": {
        "params": {
          "_required": "Number of required confirmations."
        }
      },
      "executeTransaction(uint256)": {
        "params": {
          "transactionId": "Transaction ID."
        }
      },
      "getConfirmationCount(uint256)": {
        "return": "Number of confirmations."
      },
      "getConfirmations(uint256)": {
        "return": "Returns array of owner addresses."
      },
      "getOwners()": {
        "return": "List of owner addresses."
      },
      "getTransactionCount(bool,bool)": {
        "return": "Total number of transactions after filters are applied."
      },
      "getTransactionIds(uint256,uint256,bool,bool)": {
        "return": "Returns array of transaction IDs."
      },
      "isConfirmed(uint256)": {
        "return": "Confirmation status."
      },
      "removeOwner(address)": {
        "params": {
          "owner": "Address of owner."
        }
      },
      "replaceOwner(address,address)": {
        "params": {
          "newOwner": "Address of new owner."
        }
      },
      "revokeConfirmation(uint256)": {
        "params": {
          "transactionId": "Transaction ID."
        }
      },
      "submitTransaction(address,uint256,bytes)": {
        "return": "Returns transaction ID."
      }
    }
  },
  "userdoc": {
    "methods": {}
  }
}