{
  "contractName": "RVXToken",
  "abi": [
    {
      "constant": true,
      "inputs": [],
      "name": "operator",
      "outputs": [
        {
          "internalType": "address",
          "name": "",
          "type": "address"
        }
      ],
      "payable": false,
      "stateMutability": "view",
      "type": "function"
    },
    {
      "constant": true,
      "inputs": [],
      "name": "isOwner",
      "outputs": [
        {
          "internalType": "bool",
          "name": "",
          "type": "bool"
        }
      ],
      "payable": false,
      "stateMutability": "view",
      "type": "function"
    },
    {
      "constant": false,
      "inputs": [
        {
          "internalType": "address",
          "name": "account",
          "type": "address"
        }
      ],
      "name": "addMinter",
      "outputs": [],
      "payable": false,
      "stateMutability": "nonpayable",
      "type": "function"
    },
    {
      "constant": false,
      "inputs": [],
      "name": "renounceMinter",
      "outputs": [],
      "payable": false,
      "stateMutability": "nonpayable",
      "type": "function"
    },
    {
      "constant": true,
      "inputs": [
        {
          "internalType": "address",
          "name": "account",
          "type": "address"
        }
      ],
      "name": "isMinter",
      "outputs": [
        {
          "internalType": "bool",
          "name": "",
          "type": "bool"
        }
      ],
      "payable": false,
      "stateMutability": "view",
      "type": "function"
    },
    {
      "constant": true,
      "inputs": [],
      "name": "_owner",
      "outputs": [
        {
          "internalType": "address payable",
          "name": "",
          "type": "address"
        }
      ],
      "payable": false,
      "stateMutability": "view",
      "type": "function"
    },
    {
      "constant": false,
      "inputs": [
        {
          "internalType": "address payable",
          "name": "newOwner",
          "type": "address"
        }
      ],
      "name": "transferOwnership",
      "outputs": [],
      "payable": false,
      "stateMutability": "nonpayable",
      "type": "function"
    },
    {
      "inputs": [],
      "payable": false,
      "stateMutability": "nonpayable",
      "type": "constructor"
    },
    {
      "payable": true,
      "stateMutability": "payable",
      "type": "fallback"
    },
    {
      "anonymous": false,
      "inputs": [
        {
          "indexed": true,
          "internalType": "address",
          "name": "from",
          "type": "address"
        },
        {
          "indexed": true,
          "internalType": "address",
          "name": "to",
          "type": "address"
        },
        {
          "indexed": false,
          "internalType": "uint256",
          "name": "value",
          "type": "uint256"
        }
      ],
      "name": "Transfer",
      "type": "event"
    },
    {
      "anonymous": false,
      "inputs": [
        {
          "indexed": true,
          "internalType": "address",
          "name": "owner",
          "type": "address"
        },
        {
          "indexed": true,
          "internalType": "address",
          "name": "spender",
          "type": "address"
        },
        {
          "indexed": false,
          "internalType": "uint256",
          "name": "value",
          "type": "uint256"
        }
      ],
      "name": "Approval",
      "type": "event"
    },
    {
      "anonymous": false,
      "inputs": [
        {
          "indexed": true,
          "internalType": "address",
          "name": "previousOwner",
          "type": "address"
        },
        {
          "indexed": true,
          "internalType": "address",
          "name": "newOwner",
          "type": "address"
        }
      ],
      "name": "OwnershipTransferred",
      "type": "event"
    },
    {
      "anonymous": false,
      "inputs": [
        {
          "indexed": true,
          "internalType": "address",
          "name": "account",
          "type": "address"
        }
      ],
      "name": "MinterAdded",
      "type": "event"
    },
    {
      "anonymous": false,
      "inputs": [
        {
          "indexed": true,
          "internalType": "address",
          "name": "account",
          "type": "address"
        }
      ],
      "name": "MinterRemoved",
      "type": "event"
    },
    {
      "constant": false,
      "inputs": [
        {
          "internalType": "address",
          "name": "_operator",
          "type": "address"
        }
      ],
      "name": "setOperator",
      "outputs": [],
      "payable": false,
      "stateMutability": "nonpayable",
      "type": "function"
    },
    {
      "constant": false,
      "inputs": [],
      "name": "depositETH",
      "outputs": [],
      "payable": true,
      "stateMutability": "payable",
      "type": "function"
    },
    {
      "constant": false,
      "inputs": [],
      "name": "withdraw",
      "outputs": [],
      "payable": false,
      "stateMutability": "nonpayable",
      "type": "function"
    },
    {
      "constant": false,
      "inputs": [],
      "name": "toggleFaucet",
      "outputs": [],
      "payable": false,
      "stateMutability": "nonpayable",
      "type": "function"
    },
    {
      "constant": true,
      "inputs": [],
      "name": "faucet",
      "outputs": [
        {
          "internalType": "bool",
          "name": "",
          "type": "bool"
        }
      ],
      "payable": false,
      "stateMutability": "view",
      "type": "function"
    },
    {
      "constant": true,
      "inputs": [],
      "name": "testtokenAmount",
      "outputs": [
        {
          "internalType": "uint256",
          "name": "",
          "type": "uint256"
        }
      ],
      "payable": false,
      "stateMutability": "view",
      "type": "function"
    },
    {
      "constant": false,
      "inputs": [
        {
          "internalType": "uint256",
          "name": "amount",
          "type": "uint256"
        }
      ],
      "name": "changeTestTokenAmount",
      "outputs": [
        {
          "internalType": "bool",
          "name": "",
          "type": "bool"
        }
      ],
      "payable": false,
      "stateMutability": "nonpayable",
      "type": "function"
    },
    {
      "constant": false,
      "inputs": [
        {
          "internalType": "address",
          "name": "wallet",
          "type": "address"
        }
      ],
      "name": "transferTestToken",
      "outputs": [
        {
          "internalType": "bool",
          "name": "",
          "type": "bool"
        }
      ],
      "payable": false,
      "stateMutability": "nonpayable",
      "type": "function"
    },
    {
      "constant": false,
      "inputs": [
        {
          "internalType": "address",
          "name": "account",
          "type": "address"
        },
        {
          "internalType": "uint256",
          "name": "amount",
          "type": "uint256"
        }
      ],
      "name": "mint",
      "outputs": [
        {
          "internalType": "bool",
          "name": "",
          "type": "bool"
        }
      ],
      "payable": false,
      "stateMutability": "nonpayable",
      "type": "function"
    },
    {
      "constant": true,
      "inputs": [],
      "name": "name",
      "outputs": [
        {
          "internalType": "string",
          "name": "",
          "type": "string"
        }
      ],
      "payable": false,
      "stateMutability": "view",
      "type": "function"
    },
    {
      "constant": true,
      "inputs": [],
      "name": "symbol",
      "outputs": [
        {
          "internalType": "string",
          "name": "",
          "type": "string"
        }
      ],
      "payable": false,
      "stateMutability": "view",
      "type": "function"
    },
    {
      "constant": true,
      "inputs": [],
      "name": "decimals",
      "outputs": [
        {
          "internalType": "uint8",
          "name": "",
          "type": "uint8"
        }
      ],
      "payable": false,
      "stateMutability": "view",
      "type": "function"
    },
    {
      "constant": true,
      "inputs": [],
      "name": "totalSupply",
      "outputs": [
        {
          "internalType": "uint256",
          "name": "",
          "type": "uint256"
        }
      ],
      "payable": false,
      "stateMutability": "view",
      "type": "function"
    },
    {
      "constant": true,
      "inputs": [
        {
          "internalType": "address",
          "name": "account",
          "type": "address"
        }
      ],
      "name": "balanceOf",
      "outputs": [
        {
          "internalType": "uint256",
          "name": "",
          "type": "uint256"
        }
      ],
      "payable": false,
      "stateMutability": "view",
      "type": "function"
    },
    {
      "constant": false,
      "inputs": [
        {
          "internalType": "address",
          "name": "recipient",
          "type": "address"
        },
        {
          "internalType": "uint256",
          "name": "amount",
          "type": "uint256"
        }
      ],
      "name": "transfer",
      "outputs": [
        {
          "internalType": "bool",
          "name": "",
          "type": "bool"
        }
      ],
      "payable": false,
      "stateMutability": "nonpayable",
      "type": "function"
    },
    {
      "constant": true,
      "inputs": [
        {
          "internalType": "address",
          "name": "owner",
          "type": "address"
        },
        {
          "internalType": "address",
          "name": "spender",
          "type": "address"
        }
      ],
      "name": "allowance",
      "outputs": [
        {
          "internalType": "uint256",
          "name": "",
          "type": "uint256"
        }
      ],
      "payable": false,
      "stateMutability": "view",
      "type": "function"
    },
    {
      "constant": false,
      "inputs": [
        {
          "internalType": "address",
          "name": "spender",
          "type": "address"
        },
        {
          "internalType": "uint256",
          "name": "amount",
          "type": "uint256"
        }
      ],
      "name": "approve",
      "outputs": [
        {
          "internalType": "bool",
          "name": "",
          "type": "bool"
        }
      ],
      "payable": false,
      "stateMutability": "nonpayable",
      "type": "function"
    },
    {
      "constant": false,
      "inputs": [
        {
          "internalType": "address",
          "name": "sender",
          "type": "address"
        },
        {
          "internalType": "address",
          "name": "recipient",
          "type": "address"
        },
        {
          "internalType": "uint256",
          "name": "amount",
          "type": "uint256"
        }
      ],
      "name": "transferFrom",
      "outputs": [
        {
          "internalType": "bool",
          "name": "",
          "type": "bool"
        }
      ],
      "payable": false,
      "stateMutability": "nonpayable",
      "type": "function"
    },
    {
      "constant": false,
      "inputs": [
        {
          "internalType": "address",
          "name": "spender",
          "type": "address"
        },
        {
          "internalType": "uint256",
          "name": "addedValue",
          "type": "uint256"
        }
      ],
      "name": "increaseAllowance",
      "outputs": [
        {
          "internalType": "bool",
          "name": "",
          "type": "bool"
        }
      ],
      "payable": false,
      "stateMutability": "nonpayable",
      "type": "function"
    },
    {
      "constant": false,
      "inputs": [
        {
          "internalType": "address",
          "name": "spender",
          "type": "address"
        },
        {
          "internalType": "uint256",
          "name": "subtractedValue",
          "type": "uint256"
        }
      ],
      "name": "decreaseAllowance",
      "outputs": [
        {
          "internalType": "bool",
          "name": "",
          "type": "bool"
        }
      ],
      "payable": false,
      "stateMutability": "nonpayable",
      "type": "function"
    }
  ],
  "bytecode": "0x608060405260018060146101000a81548160ff021916908315150217905550683635c9adc5dea000006002553480156200003857600080fd5b50620000596200004d6200028d60201b60201c565b6200029560201b60201c565b33600160006101000a81548173ffffffffffffffffffffffffffffffffffffffff021916908373ffffffffffffffffffffffffffffffffffffffff160217905550600160009054906101000a900473ffffffffffffffffffffffffffffffffffffffff1673ffffffffffffffffffffffffffffffffffffffff16600073ffffffffffffffffffffffffffffffffffffffff167f8be0079c531659141344cd1fd0a4f28419497f9722a3daafe3b4186f6b6457e060405160405180910390a36040518060400160405280600b81526020017f526976655820546f6b656e0000000000000000000000000000000000000000008152506003908051906020019062000164929190620004ba565b506040518060400160405280600381526020017f525658000000000000000000000000000000000000000000000000000000000081525060049080519060200190620001b2929190620004ba565b506012600560006101000a81548160ff021916908360ff1602179055506b0cecb8f27f4200f3a00000006008819055506b0cecb8f27f4200f3a0000000600660003373ffffffffffffffffffffffffffffffffffffffff1673ffffffffffffffffffffffffffffffffffffffff1681526020019081526020016000208190555073823fbd6c41ff917b78b88fee561291fd750ddfcd600560016101000a81548173ffffffffffffffffffffffffffffffffffffffff021916908373ffffffffffffffffffffffffffffffffffffffff16021790555062000569565b600033905090565b620002b0816000620002f660201b620021a21790919060201c565b8073ffffffffffffffffffffffffffffffffffffffff167f6ae172837ea30b801fbfcdd4108aa1d5bf8ff775444fd70256b44e6bf3dfc3f660405160405180910390a250565b620003088282620003da60201b60201c565b156200037c576040517f08c379a000000000000000000000000000000000000000000000000000000000815260040180806020018281038252601f8152602001807f526f6c65733a206163636f756e7420616c72656164792068617320726f6c650081525060200191505060405180910390fd5b60018260000160008373ffffffffffffffffffffffffffffffffffffffff1673ffffffffffffffffffffffffffffffffffffffff16815260200190815260200160002060006101000a81548160ff0219169083151502179055505050565b60008073ffffffffffffffffffffffffffffffffffffffff168273ffffffffffffffffffffffffffffffffffffffff16141562000463576040517f08c379a000000000000000000000000000000000000000000000000000000000815260040180806020018281038252602281526020018062002aa36022913960400191505060405180910390fd5b8260000160008373ffffffffffffffffffffffffffffffffffffffff1673ffffffffffffffffffffffffffffffffffffffff16815260200190815260200160002060009054906101000a900460ff16905092915050565b828054600181600116156101000203166002900490600052602060002090601f016020900481019282601f10620004fd57805160ff19168380011785556200052e565b828001600101855582156200052e579182015b828111156200052d57825182559160200191906001019062000510565b5b5090506200053d919062000541565b5090565b6200056691905b808211156200056257600081600090555060010162000548565b5090565b90565b61252a80620005796000396000f3fe60806040526004361061019c5760003560e01c806370a08231116100ec578063aa271e1a1161008a578063dd62ed3e11610064578063dd62ed3e1461096d578063de5f72fd146109f2578063f2fde38b14610a21578063f6326fb314610a725761019c565b8063aa271e1a1461085c578063b2bdfa7b146108c5578063b3ab15fb1461091c5761019c565b8063983b2d56116100c6578063983b2d561461070e578063986502751461075f578063a457c2d714610776578063a9059cbb146107e95761019c565b806370a08231146105ea5780638f32d59b1461064f57806395d89b411461067e5761019c565b8063295711f911610159578063395093511161013357806339509351146104965780633ccfd60b1461050957806340c10f1914610520578063570ca735146105935761019c565b8063295711f9146104235780632c186c531461043a578063313ce567146104655761019c565b806306fdde03146101a6578063095ea7b3146102365780630b27270d146102a9578063177a61f5146102fc57806318160ddd1461036557806323b872dd14610390575b6101a4610a7c565b005b3480156101b257600080fd5b506101bb610a8b565b6040518080602001828103825283818151815260200191508051906020019080838360005b838110156101fb5780820151818401526020810190506101e0565b50505050905090810190601f1680156102285780820380516001836020036101000a031916815260200191505b509250505060405180910390f35b34801561024257600080fd5b5061028f6004803603604081101561025957600080fd5b81019080803573ffffffffffffffffffffffffffffffffffffffff16906020019092919080359060200190929190505050610b2d565b604051808215151515815260200191505060405180910390f35b3480156102b557600080fd5b506102e2600480360360208110156102cc57600080fd5b8101908080359060200190929190505050610b4b565b604051808215151515815260200191505060405180910390f35b34801561030857600080fd5b5061034b6004803603602081101561031f57600080fd5b81019080803573ffffffffffffffffffffffffffffffffffffffff169060200190929190505050610c37565b604051808215151515815260200191505060405180910390f35b34801561037157600080fd5b5061037a610d2f565b6040518082815260200191505060405180910390f35b34801561039c57600080fd5b50610409600480360360608110156103b357600080fd5b81019080803573ffffffffffffffffffffffffffffffffffffffff169060200190929190803573ffffffffffffffffffffffffffffffffffffffff16906020019092919080359060200190929190505050610d39565b604051808215151515815260200191505060405180910390f35b34801561042f57600080fd5b50610438610e12565b005b34801561044657600080fd5b5061044f610efe565b6040518082815260200191505060405180910390f35b34801561047157600080fd5b5061047a610f08565b604051808260ff1660ff16815260200191505060405180910390f35b3480156104a257600080fd5b506104ef600480360360408110156104b957600080fd5b81019080803573ffffffffffffffffffffffffffffffffffffffff16906020019092919080359060200190929190505050610f1f565b604051808215151515815260200191505060405180910390f35b34801561051557600080fd5b5061051e610fd2565b005b34801561052c57600080fd5b506105796004803603604081101561054357600080fd5b81019080803573ffffffffffffffffffffffffffffffffffffffff169060200190929190803590602001909291905050506110ce565b604051808215151515815260200191505060405180910390f35b34801561059f57600080fd5b506105a8611149565b604051808273ffffffffffffffffffffffffffffffffffffffff1673ffffffffffffffffffffffffffffffffffffffff16815260200191505060405180910390f35b3480156105f657600080fd5b506106396004803603602081101561060d57600080fd5b81019080803573ffffffffffffffffffffffffffffffffffffffff16906020019092919050505061116f565b6040518082815260200191505060405180910390f35b34801561065b57600080fd5b506106646111b8565b604051808215151515815260200191505060405180910390f35b34801561068a57600080fd5b50610693611217565b6040518080602001828103825283818151815260200191508051906020019080838360005b838110156106d35780820151818401526020810190506106b8565b50505050905090810190601f1680156107005780820380516001836020036101000a031916815260200191505b509250505060405180910390f35b34801561071a57600080fd5b5061075d6004803603602081101561073157600080fd5b81019080803573ffffffffffffffffffffffffffffffffffffffff1690602001909291905050506112b9565b005b34801561076b57600080fd5b5061077461132a565b005b34801561078257600080fd5b506107cf6004803603604081101561079957600080fd5b81019080803573ffffffffffffffffffffffffffffffffffffffff1690602001909291908035906020019092919050505061133c565b604051808215151515815260200191505060405180910390f35b3480156107f557600080fd5b506108426004803603604081101561080c57600080fd5b81019080803573ffffffffffffffffffffffffffffffffffffffff16906020019092919080359060200190929190505050611409565b604051808215151515815260200191505060405180910390f35b34801561086857600080fd5b506108ab6004803603602081101561087f57600080fd5b81019080803573ffffffffffffffffffffffffffffffffffffffff169060200190929190505050611427565b604051808215151515815260200191505060405180910390f35b3480156108d157600080fd5b506108da611444565b604051808273ffffffffffffffffffffffffffffffffffffffff1673ffffffffffffffffffffffffffffffffffffffff16815260200191505060405180910390f35b34801561092857600080fd5b5061096b6004803603602081101561093f57600080fd5b81019080803573ffffffffffffffffffffffffffffffffffffffff16906020019092919050505061146a565b005b34801561097957600080fd5b506109dc6004803603604081101561099057600080fd5b81019080803573ffffffffffffffffffffffffffffffffffffffff169060200190929190803573ffffffffffffffffffffffffffffffffffffffff169060200190929190505050611562565b6040518082815260200191505060405180910390f35b3480156109fe57600080fd5b50610a076115e9565b604051808215151515815260200191505060405180910390f35b348015610a2d57600080fd5b50610a7060048036036020811015610a4457600080fd5b81019080803573ffffffffffffffffffffffffffffffffffffffff169060200190929190505050611600565b005b610a7a610a7c565b005b60003411610a8957600080fd5b565b606060038054600181600116156101000203166002900480601f016020809104026020016040519081016040528092919081815260200182805460018160011615610100020316600290048015610b235780601f10610af857610100808354040283529160200191610b23565b820191906000526020600020905b815481529060010190602001808311610b0657829003601f168201915b5050505050905090565b6000610b41610b3a611686565b848461168e565b6001905092915050565b6000600560019054906101000a900473ffffffffffffffffffffffffffffffffffffffff1673ffffffffffffffffffffffffffffffffffffffff16610b8e611686565b73ffffffffffffffffffffffffffffffffffffffff161480610c045750600160009054906101000a900473ffffffffffffffffffffffffffffffffffffffff1673ffffffffffffffffffffffffffffffffffffffff16610bec611686565b73ffffffffffffffffffffffffffffffffffffffff16145b610c0d57600080fd5b610c28670de0b6b3a76400008361188590919063ffffffff16565b60028190555060019050919050565b6000600160149054906101000a900460ff16610c5257600080fd5b600560019054906101000a900473ffffffffffffffffffffffffffffffffffffffff1673ffffffffffffffffffffffffffffffffffffffff16610c93611686565b73ffffffffffffffffffffffffffffffffffffffff161480610d095750600160009054906101000a900473ffffffffffffffffffffffffffffffffffffffff1673ffffffffffffffffffffffffffffffffffffffff16610cf1611686565b73ffffffffffffffffffffffffffffffffffffffff16145b610d1257600080fd5b610d26610d1d611686565b8360025461190b565b60019050919050565b6000600854905090565b6000610d4684848461190b565b610e0784610d52611686565b610e028560405180606001604052806028815260200161243e60289139600760008b73ffffffffffffffffffffffffffffffffffffffff1673ffffffffffffffffffffffffffffffffffffffff1681526020019081526020016000206000610db8611686565b73ffffffffffffffffffffffffffffffffffffffff1673ffffffffffffffffffffffffffffffffffffffff16815260200190815260200160002054611bc59092919063ffffffff16565b61168e565b600190509392505050565b600560019054906101000a900473ffffffffffffffffffffffffffffffffffffffff1673ffffffffffffffffffffffffffffffffffffffff16610e53611686565b73ffffffffffffffffffffffffffffffffffffffff161480610ec95750600160009054906101000a900473ffffffffffffffffffffffffffffffffffffffff1673ffffffffffffffffffffffffffffffffffffffff16610eb1611686565b73ffffffffffffffffffffffffffffffffffffffff16145b610ed257600080fd5b600160149054906101000a900460ff1615600160146101000a81548160ff021916908315150217905550565b6000600254905090565b6000600560009054906101000a900460ff16905090565b6000610fc8610f2c611686565b84610fc38560076000610f3d611686565b73ffffffffffffffffffffffffffffffffffffffff1673ffffffffffffffffffffffffffffffffffffffff16815260200190815260200160002060008973ffffffffffffffffffffffffffffffffffffffff1673ffffffffffffffffffffffffffffffffffffffff16815260200190815260200160002054611c8590919063ffffffff16565b61168e565b6001905092915050565b610fda6111b8565b61104c576040517f08c379a00000000000000000000000000000000000000000000000000000000081526004018080602001828103825260208152602001807f4f776e61626c653a2063616c6c6572206973206e6f7420746865206f776e657281525060200191505060405180910390fd5b600160009054906101000a900473ffffffffffffffffffffffffffffffffffffffff1673ffffffffffffffffffffffffffffffffffffffff166108fc3073ffffffffffffffffffffffffffffffffffffffff16319081150290604051600060405180830381858888f193505050501580156110cb573d6000803e3d6000fd5b50565b60006110e06110db611686565b611427565b611135576040517f08c379a00000000000000000000000000000000000000000000000000000000081526004018080602001828103825260308152602001806123cc6030913960400191505060405180910390fd5b61113f8383611d0d565b6001905092915050565b600560019054906101000a900473ffffffffffffffffffffffffffffffffffffffff1681565b6000600660008373ffffffffffffffffffffffffffffffffffffffff1673ffffffffffffffffffffffffffffffffffffffff168152602001908152602001600020549050919050565b6000600160009054906101000a900473ffffffffffffffffffffffffffffffffffffffff1673ffffffffffffffffffffffffffffffffffffffff166111fb611686565b73ffffffffffffffffffffffffffffffffffffffff1614905090565b606060048054600181600116156101000203166002900480601f0160208091040260200160405190810160405280929190818152602001828054600181600116156101000203166002900480156112af5780601f10611284576101008083540402835291602001916112af565b820191906000526020600020905b81548152906001019060200180831161129257829003601f168201915b5050505050905090565b6112c96112c4611686565b611427565b61131e576040517f08c379a00000000000000000000000000000000000000000000000000000000081526004018080602001828103825260308152602001806123cc6030913960400191505060405180910390fd5b61132781611eca565b50565b61133a611335611686565b611f24565b565b60006113ff611349611686565b846113fa856040518060600160405280602581526020016124d16025913960076000611373611686565b73ffffffffffffffffffffffffffffffffffffffff1673ffffffffffffffffffffffffffffffffffffffff16815260200190815260200160002060008a73ffffffffffffffffffffffffffffffffffffffff1673ffffffffffffffffffffffffffffffffffffffff16815260200190815260200160002054611bc59092919063ffffffff16565b61168e565b6001905092915050565b600061141d611416611686565b848461190b565b6001905092915050565b600061143d826000611f7e90919063ffffffff16565b9050919050565b600160009054906101000a900473ffffffffffffffffffffffffffffffffffffffff1681565b6114726111b8565b6114e4576040517f08c379a00000000000000000000000000000000000000000000000000000000081526004018080602001828103825260208152602001807f4f776e61626c653a2063616c6c6572206973206e6f7420746865206f776e657281525060200191505060405180910390fd5b600073ffffffffffffffffffffffffffffffffffffffff168173ffffffffffffffffffffffffffffffffffffffff16141561151e57600080fd5b80600560016101000a81548173ffffffffffffffffffffffffffffffffffffffff021916908373ffffffffffffffffffffffffffffffffffffffff16021790555050565b6000600760008473ffffffffffffffffffffffffffffffffffffffff1673ffffffffffffffffffffffffffffffffffffffff16815260200190815260200160002060008373ffffffffffffffffffffffffffffffffffffffff1673ffffffffffffffffffffffffffffffffffffffff16815260200190815260200160002054905092915050565b6000600160149054906101000a900460ff16905090565b6116086111b8565b61167a576040517f08c379a00000000000000000000000000000000000000000000000000000000081526004018080602001828103825260208152602001807f4f776e61626c653a2063616c6c6572206973206e6f7420746865206f776e657281525060200191505060405180910390fd5b6116838161205c565b50565b600033905090565b600073ffffffffffffffffffffffffffffffffffffffff168373ffffffffffffffffffffffffffffffffffffffff161415611714576040517f08c379a00000000000000000000000000000000000000000000000000000000081526004018080602001828103825260248152602001806124ad6024913960400191505060405180910390fd5b600073ffffffffffffffffffffffffffffffffffffffff168273ffffffffffffffffffffffffffffffffffffffff16141561179a576040517f08c379a00000000000000000000000000000000000000000000000000000000081526004018080602001828103825260228152602001806123846022913960400191505060405180910390fd5b80600760008573ffffffffffffffffffffffffffffffffffffffff1673ffffffffffffffffffffffffffffffffffffffff16815260200190815260200160002060008473ffffffffffffffffffffffffffffffffffffffff1673ffffffffffffffffffffffffffffffffffffffff168152602001908152602001600020819055508173ffffffffffffffffffffffffffffffffffffffff168373ffffffffffffffffffffffffffffffffffffffff167f8c5be1e5ebec7d5bd14f71427d1e84f3dd0314c0f7b2291e5b200ac8c7c3b925836040518082815260200191505060405180910390a3505050565b6000808314156118985760009050611905565b60008284029050828482816118a957fe5b0414611900576040517f08c379a000000000000000000000000000000000000000000000000000000000815260040180806020018281038252602181526020018061241d6021913960400191505060405180910390fd5b809150505b92915050565b600073ffffffffffffffffffffffffffffffffffffffff168373ffffffffffffffffffffffffffffffffffffffff161415611991576040517f08c379a00000000000000000000000000000000000000000000000000000000081526004018080602001828103825260258152602001806124886025913960400191505060405180910390fd5b600073ffffffffffffffffffffffffffffffffffffffff168273ffffffffffffffffffffffffffffffffffffffff161415611a17576040517f08c379a000000000000000000000000000000000000000000000000000000000815260040180806020018281038252602381526020018061233b6023913960400191505060405180910390fd5b611a83816040518060600160405280602681526020016123a660269139600660008773ffffffffffffffffffffffffffffffffffffffff1673ffffffffffffffffffffffffffffffffffffffff16815260200190815260200160002054611bc59092919063ffffffff16565b600660008573ffffffffffffffffffffffffffffffffffffffff1673ffffffffffffffffffffffffffffffffffffffff16815260200190815260200160002081905550611b1881600660008573ffffffffffffffffffffffffffffffffffffffff1673ffffffffffffffffffffffffffffffffffffffff16815260200190815260200160002054611c8590919063ffffffff16565b600660008473ffffffffffffffffffffffffffffffffffffffff1673ffffffffffffffffffffffffffffffffffffffff168152602001908152602001600020819055508173ffffffffffffffffffffffffffffffffffffffff168373ffffffffffffffffffffffffffffffffffffffff167fddf252ad1be2c89b69c2b068fc378daa952ba7f163c4a11628f55a4df523b3ef836040518082815260200191505060405180910390a3505050565b6000838311158290611c72576040517f08c379a00000000000000000000000000000000000000000000000000000000081526004018080602001828103825283818151815260200191508051906020019080838360005b83811015611c37578082015181840152602081019050611c1c565b50505050905090810190601f168015611c645780820380516001836020036101000a031916815260200191505b509250505060405180910390fd5b5060008385039050809150509392505050565b600080828401905083811015611d03576040517f08c379a000000000000000000000000000000000000000000000000000000000815260040180806020018281038252601b8152602001807f536166654d6174683a206164646974696f6e206f766572666c6f77000000000081525060200191505060405180910390fd5b8091505092915050565b600073ffffffffffffffffffffffffffffffffffffffff168273ffffffffffffffffffffffffffffffffffffffff161415611db0576040517f08c379a000000000000000000000000000000000000000000000000000000000815260040180806020018281038252601f8152602001807f45524332303a206d696e7420746f20746865207a65726f20616464726573730081525060200191505060405180910390fd5b611dc581600854611c8590919063ffffffff16565b600881905550611e1d81600660008573ffffffffffffffffffffffffffffffffffffffff1673ffffffffffffffffffffffffffffffffffffffff16815260200190815260200160002054611c8590919063ffffffff16565b600660008473ffffffffffffffffffffffffffffffffffffffff1673ffffffffffffffffffffffffffffffffffffffff168152602001908152602001600020819055508173ffffffffffffffffffffffffffffffffffffffff16600073ffffffffffffffffffffffffffffffffffffffff167fddf252ad1be2c89b69c2b068fc378daa952ba7f163c4a11628f55a4df523b3ef836040518082815260200191505060405180910390a35050565b611ede8160006121a290919063ffffffff16565b8073ffffffffffffffffffffffffffffffffffffffff167f6ae172837ea30b801fbfcdd4108aa1d5bf8ff775444fd70256b44e6bf3dfc3f660405160405180910390a250565b611f3881600061227d90919063ffffffff16565b8073ffffffffffffffffffffffffffffffffffffffff167fe94479a9f7e1952cc78f2d6baab678adc1b772d936c6583def489e524cb6669260405160405180910390a250565b60008073ffffffffffffffffffffffffffffffffffffffff168273ffffffffffffffffffffffffffffffffffffffff161415612005576040517f08c379a00000000000000000000000000000000000000000000000000000000081526004018080602001828103825260228152602001806124666022913960400191505060405180910390fd5b8260000160008373ffffffffffffffffffffffffffffffffffffffff1673ffffffffffffffffffffffffffffffffffffffff16815260200190815260200160002060009054906101000a900460ff16905092915050565b600073ffffffffffffffffffffffffffffffffffffffff168173ffffffffffffffffffffffffffffffffffffffff1614156120e2576040517f08c379a000000000000000000000000000000000000000000000000000000000815260040180806020018281038252602681526020018061235e6026913960400191505060405180910390fd5b8073ffffffffffffffffffffffffffffffffffffffff16600160009054906101000a900473ffffffffffffffffffffffffffffffffffffffff1673ffffffffffffffffffffffffffffffffffffffff167f8be0079c531659141344cd1fd0a4f28419497f9722a3daafe3b4186f6b6457e060405160405180910390a380600160006101000a81548173ffffffffffffffffffffffffffffffffffffffff021916908373ffffffffffffffffffffffffffffffffffffffff16021790555050565b6121ac8282611f7e565b1561221f576040517f08c379a000000000000000000000000000000000000000000000000000000000815260040180806020018281038252601f8152602001807f526f6c65733a206163636f756e7420616c72656164792068617320726f6c650081525060200191505060405180910390fd5b60018260000160008373ffffffffffffffffffffffffffffffffffffffff1673ffffffffffffffffffffffffffffffffffffffff16815260200190815260200160002060006101000a81548160ff0219169083151502179055505050565b6122878282611f7e565b6122dc576040517f08c379a00000000000000000000000000000000000000000000000000000000081526004018080602001828103825260218152602001806123fc6021913960400191505060405180910390fd5b60008260000160008373ffffffffffffffffffffffffffffffffffffffff1673ffffffffffffffffffffffffffffffffffffffff16815260200190815260200160002060006101000a81548160ff021916908315150217905550505056fe45524332303a207472616e7366657220746f20746865207a65726f20616464726573734f776e61626c653a206e6577206f776e657220697320746865207a65726f206164647265737345524332303a20617070726f766520746f20746865207a65726f206164647265737345524332303a207472616e7366657220616d6f756e7420657863656564732062616c616e63654d696e746572526f6c653a2063616c6c657220646f6573206e6f74206861766520746865204d696e74657220726f6c65526f6c65733a206163636f756e7420646f6573206e6f74206861766520726f6c65536166654d6174683a206d756c7469706c69636174696f6e206f766572666c6f7745524332303a207472616e7366657220616d6f756e74206578636565647320616c6c6f77616e6365526f6c65733a206163636f756e7420697320746865207a65726f206164647265737345524332303a207472616e736665722066726f6d20746865207a65726f206164647265737345524332303a20617070726f76652066726f6d20746865207a65726f206164647265737345524332303a2064656372656173656420616c6c6f77616e63652062656c6f77207a65726fa265627a7a7231582043c887d471f63ff4f27ac644d232a97162747ac29f09831bb5a0adb8959909af64736f6c634300050b0032526f6c65733a206163636f756e7420697320746865207a65726f2061646472657373",
  "source": "pragma solidity 0.5.11;\n\n\nlibrary SafeMath {\n    function add(uint256 a, uint256 b) internal pure returns(uint256) {\n        uint256 c = a + b;\n        require(c >= a, \"SafeMath: addition overflow\");\n\n        return c;\n    }\n\n    function sub(uint256 a, uint256 b) internal pure returns(uint256) {\n        return sub(a, b, \"SafeMath: subtraction overflow\");\n    }\n\n    function sub(uint256 a, uint256 b, string memory errorMessage) internal pure returns(uint256) {\n        require(b <= a, errorMessage);\n        uint256 c = a - b;\n\n        return c;\n    }\n\n    function mul(uint256 a, uint256 b) internal pure returns(uint256) {\n        if (a == 0) {\n            return 0;\n        }\n\n        uint256 c = a * b;\n        require(c / a == b, \"SafeMath: multiplication overflow\");\n\n        return c;\n    }\n\n    function div(uint256 a, uint256 b) internal pure returns(uint256) {\n        return div(a, b, \"SafeMath: division by zero\");\n    }\n\n    function div(uint256 a, uint256 b, string memory errorMessage) internal pure returns(uint256) {\n        // Solidity only automatically asserts when dividing by 0\n        require(b > 0, errorMessage);\n        uint256 c = a / b;\n\n        return c;\n    }\n\n    function mod(uint256 a, uint256 b) internal pure returns(uint256) {\n        return mod(a, b, \"SafeMath: modulo by zero\");\n    }\n\n    function mod(uint256 a, uint256 b, string memory errorMessage) internal pure returns(uint256) {\n        require(b != 0, errorMessage);\n        return a % b;\n    }\n}\ncontract Context {\n    constructor() internal {}\n\n    function _msgSender() internal view returns(address) {\n        return msg.sender;\n    }\n\n    function _msgData() internal view returns(bytes memory) {\n        this;\n        return msg.data;\n    }\n}\n\ncontract Ownable is Context {\n    address payable public _owner;\n    event OwnershipTransferred(address indexed previousOwner, address indexed newOwner);\n    constructor() internal {\n        _owner = msg.sender;\n        emit OwnershipTransferred(address(0), _owner);\n    }\n\n\n    modifier onlyOwner() {\n        require(isOwner(), \"Ownable: caller is not the owner\");\n        _;\n    }\n\n    function isOwner() public view returns(bool) {\n        return _msgSender() == _owner;\n    }\n\n    function transferOwnership(address payable newOwner) public onlyOwner {\n        _transferOwnership(newOwner);\n    }\n\n    function _transferOwnership(address payable newOwner) internal {\n        require(newOwner != address(0), \"Ownable: new owner is the zero address\");\n        emit OwnershipTransferred(_owner, newOwner);\n        _owner = newOwner;\n    }\n\n}\n\nlibrary Roles {\n    struct Role {\n        mapping(address => bool) bearer;\n    }\n\n    function add(Role storage role, address account) internal {\n        require(!has(role, account), \"Roles: account already has role\");\n        role.bearer[account] = true;\n    }\n\n    function remove(Role storage role, address account) internal {\n        require(has(role, account), \"Roles: account does not have role\");\n        role.bearer[account] = false;\n    }\n\n    function has(Role storage role, address account) internal view returns(bool) {\n        require(account != address(0), \"Roles: account is the zero address\");\n        return role.bearer[account];\n    }\n}\n\ncontract MinterRole is Context {\n    using Roles\n    for Roles.Role;\n\n    event MinterAdded(address indexed account);\n    event MinterRemoved(address indexed account);\n\n    Roles.Role private _minters;\n\n    constructor() internal {\n        _addMinter(_msgSender());\n    }\n\n    modifier onlyMinter() {\n        require(isMinter(_msgSender()), \"MinterRole: caller does not have the Minter role\");\n        _;\n    }\n\n    function isMinter(address account) public view returns(bool) {\n        return _minters.has(account);\n    }\n\n    function addMinter(address account) public onlyMinter {\n        _addMinter(account);\n    }\n\n    function renounceMinter() public {\n        _removeMinter(_msgSender());\n    }\n\n    function _addMinter(address account) internal {\n        _minters.add(account);\n        emit MinterAdded(account);\n    }\n\n    function _removeMinter(address account) internal {\n        _minters.remove(account);\n        emit MinterRemoved(account);\n    }\n}\n\ninterface IERC20 {\n\n    function totalSupply() external view returns(uint256);\n\n    function balanceOf(address account) external view returns(uint256);\n\n    function transfer(address recipient, uint256 amount) external returns(bool);\n\n    function allowance(address owner, address spender) external view returns(uint256);\n\n    function approve(address spender, uint256 amount) external returns(bool);\n\n    function transferFrom(address sender, address recipient, uint256 amount) external returns(bool);\n    event Transfer(address indexed from, address indexed to, uint256 value);\n    event Approval(address indexed owner, address indexed spender, uint256 value);\n}\n\ncontract RVXToken is MinterRole, Ownable, IERC20 {\n\n    using SafeMath for uint256;\n    bool private faucetEnabled = true;\n    uint256 private testTokenAmount = 10 ** 21;\n    string private _name;\n    string private _symbol;\n    uint8 private _decimals;\n    address public operator;\n    mapping(address => uint256) private _balances;\n    mapping(address => mapping(address => uint256)) private _allowances;\n    uint256 private _totalSupply;\n    modifier onlyPayloadSize(uint size) {\n        require(msg.data.length >= size + 4);\n        _;\n    }\n\n\n    modifier isFaucetEnabled {\n        require(faucetEnabled);\n        _;\n    }\n\n    modifier onlyOperator {\n        require(_msgSender() == operator || _msgSender() == _owner);\n        _;\n    }\n\n    function setOperator(address _operator) external onlyOwner {\n        require(_operator != address(0));\n        operator = _operator;\n    }\n    //constructor\n    constructor() public {\n        _name = \"RiveX Token\";\n        _symbol = \"RVX\";\n        _decimals = 18;\n        _totalSupply = 4000000000 ether;\n        _balances[msg.sender] = 4000000000 ether;\n        operator = 0x823FbD6C41Ff917B78B88fEE561291Fd750DDfCd; //added operator address (faucet wallet)\n    }\n\n    function depositETH() public payable { //added deposit eth function\n        require(msg.value > 0);\n    }\n\n    function() external payable { //added default fallback function (if someone just deposits eth to contract, it can handle)\n        depositETH();\n    }\n\n    function withdraw() onlyOwner public { //owner can withdraw ether from contract\n\n        _owner.transfer(address(this).balance);\n    }\n\n    function toggleFaucet() onlyOperator public {\n        faucetEnabled = !faucetEnabled;\n    }\n\n    function faucet() public view returns(bool) {\n        return faucetEnabled;\n    }\n\n    function testtokenAmount() public view returns(uint256) {\n        return testTokenAmount;\n    }\n\n\n    function changeTestTokenAmount(uint256 amount) public onlyOperator returns(bool) {\n        testTokenAmount = amount.mul(1000000000000000000);\n        return true;\n    }\n\n    function transferTestToken(address wallet) public isFaucetEnabled onlyOperator returns(bool) {\n        _transfer(_msgSender(), wallet, testTokenAmount);\n        return true;\n    }\n\n    function mint(address account, uint256 amount) public onlyMinter returns(bool) {\n        _mint(account, amount);\n        return true;\n    }\n\n    function name() public view returns(string memory) {\n        return _name;\n    }\n\n    function symbol() public view returns(string memory) {\n        return _symbol;\n    }\n\n    function decimals() public view returns(uint8) {\n        return _decimals;\n    }\n\n    function totalSupply() public view returns(uint256) {\n        return _totalSupply;\n    }\n\n    function balanceOf(address account) public view returns(uint256) {\n        return _balances[account];\n    }\n\n    function transfer(address recipient, uint256 amount) public returns(bool) {\n        _transfer(_msgSender(), recipient, amount);\n        return true;\n    }\n\n    function allowance(address owner, address spender) public view returns(uint256) {\n        return _allowances[owner][spender];\n    }\n\n    function approve(address spender, uint256 amount) public returns(bool) {\n        _approve(_msgSender(), spender, amount);\n        return true;\n    }\n\n    function transferFrom(address sender, address recipient, uint256 amount) public returns(bool) {\n        _transfer(sender, recipient, amount);\n        _approve(sender, _msgSender(), _allowances[sender][_msgSender()].sub(amount, \"ERC20: transfer amount exceeds allowance\"));\n        return true;\n    }\n\n    function increaseAllowance(address spender, uint256 addedValue) public returns(bool) {\n        _approve(_msgSender(), spender, _allowances[_msgSender()][spender].add(addedValue));\n        return true;\n    }\n\n    function decreaseAllowance(address spender, uint256 subtractedValue) public returns(bool) {\n        _approve(_msgSender(), spender, _allowances[_msgSender()][spender].sub(subtractedValue, \"ERC20: decreased allowance below zero\"));\n        return true;\n    }\n\n    function _transfer(address sender, address recipient, uint256 amount) internal {\n        require(sender != address(0), \"ERC20: transfer from the zero address\");\n        require(recipient != address(0), \"ERC20: transfer to the zero address\");\n\n        _balances[sender] = _balances[sender].sub(amount, \"ERC20: transfer amount exceeds balance\");\n        _balances[recipient] = _balances[recipient].add(amount);\n        emit Transfer(sender, recipient, amount);\n    }\n\n    function _mint(address account, uint256 amount) internal {\n        require(account != address(0), \"ERC20: mint to the zero address\");\n\n        _totalSupply = _totalSupply.add(amount);\n        _balances[account] = _balances[account].add(amount);\n        emit Transfer(address(0), account, amount);\n    }\n\n    function _burn(address account, uint256 amount) internal {\n        require(account != address(0), \"ERC20: burn from the zero address\");\n\n        _balances[account] = _balances[account].sub(amount, \"ERC20: burn amount exceeds balance\");\n        _totalSupply = _totalSupply.sub(amount);\n        emit Transfer(account, address(0), amount);\n    }\n\n    function _approve(address owner, address spender, uint256 amount) internal {\n        require(owner != address(0), \"ERC20: approve from the zero address\");\n        require(spender != address(0), \"ERC20: approve to the zero address\");\n\n        _allowances[owner][spender] = amount;\n        emit Approval(owner, spender, amount);\n    }\n\n    function _burnFrom(address account, uint256 amount) internal {\n        _burn(account, amount);\n        _approve(account, _msgSender(), _allowances[account][_msgSender()].sub(amount, \"ERC20: burn amount exceeds allowance\"));\n    }\n\n\n\n\n}",
  "sourcePath": "D:\\gwan-windows-amd64-2.1.4-79b5c81b\\deployment\\contracts\\RVXToken.sol",
  "compiler": {
    "name": "solc",
    "version": "0.5.11+commit.c082d0b4.Emscripten.clang"
  },
  "schemaVersion": "3.0.23",
  "updatedAt": "2020-02-03T16:08:13.176Z",
  "devdoc": {
    "methods": {}
  },
  "userdoc": {
    "methods": {}
  }
}